:020000040800F2
:1000000000120120210A0008E90600080D0A000874
:100010000D0A00080D0A00080D0A00080000000083
:100020000000000000000000000000000D0B0008B0
:100030000D0A000800000000A90A00080D1B0008B6
:10004000810C0008810C0008810C0008810C00085C
:10005000810C0008810C0008810C0008810C00084C
:10006000810C0008810C0008810C0008810C00083C
:10007000810C0008810C0008810C0008810C00082C
:10008000810C0008810C0008810C0008810C00081C
:10009000810C0008810C0008810C0008810C00080C
:1000A000810C0008810C0008810C0008810C0008FC
:1000B000810C0008810C0008810C0008810C0008EC
:1000C000810C0008810C0008810C0008810C0008DC
:1000D000810C0008810C0008810C0008810C0008CC
:1000E000810C0008810C0008810C0008810C0008BC
:1000F000810C0008810C0008810C0008810C0008AC
:10010000810C0008810C0008810C0008810C00089B
:10011000810C0008810C0008810C0008810C00088B
:10012000810C0008810C0008810C0008810C00087B
:10013000810C0008810C0008810C0008810C00086B
:10014000810C0008810C0008810C0008810C00085B
:10015000810C0008810C0008810C0008810C00084B
:10016000810C0008810C0008810C0008810C00083B
:10017000810C0008810C0008810C0008810C00082B
:10018000810C0008810C0008810C0008810C00081B
:10019000810C0008810C0008810C0008810C00080B
:1001A000810C0008810C0008810C0008810C0008FB
:1001B000810C0008810C0008810C0008810C0008EB
:0801C000810C0008810C00080D
:1001C80053B94AB9002908BF00281CBF4FF0FF31B6
:1001D8004FF0FF3000F00CB8ADF1080C6DE904CE1B
:1001E80000F010F8DDF804E0DDE9022304B0704700
:1001F800704700BF034613F8012B002AFBD1181AD9
:10020800013870472DE9F04786468C460846089E17
:10021800154674461946002B40F0C2808542B2FA52
:1002280082F245D94AB1C2F1200300FA02FC2EFA43
:1002380003F3954043EA0C0C94404FEA154EA8B2DC
:10024800BCFBFEF8230C0EFB18CC08FB00F943EAB4
:100258000C43994528D9EB1808F1FF3704D2994582
:1002680002D9A8F102072B44A3EB0903A4B2B3FBFC
:10027800FEFC0EFB1C330CFB00F044EA0344A042D6
:1002880014D92C190CF1FF3304D2A04202D9ACF1D5
:1002980002032C44241A43EA07401EB1D440002329
:1002A80034607360BDE8F0874746DDE76346F1E7F1
:1002B80092BB431B01214FEA154EAFB2B3FBFEFCC4
:1002C800200C0EFB1C330CFB07F840EA034398454F
:1002D80062D9EB180CF1FF3004D2984502D9ACF181
:1002E80002002B44A3EB0803A4B2B3FBFEFC0EFBF5
:1002F8001C330CFB07F744EA0344A7424ED92C19D8
:100308000CF1FF3304D2A74202D9ACF102032C440A
:10031800E41B43EA0040C0E7C2F1200320FA03F1DE
:10032800954090402EFA03F303434FEA154EAFB2BF
:10033800B1FBFEFC0EFB1C10190C0CFB07F841EA84
:100348000041884504FA02F422D969180CF1FF30FB
:1003580004D2884502D9ACF102002944A1EB080176
:100368009BB2B1FBFEFC0EFB1C110CFB07F743EA2A
:1003780001439F420ED9EB180CF1FF3104D29F4282
:1003880002D9ACF102012B44DB1B41EA004192E7A0
:100398006046E3E76146F7E76046A3E76346B7E7E9
:1003A800834206D916B9002108467BE7C6E900E072
:1003B800F9E7B3FA83F78FB9834201D3724508D8B6
:1003C800BEEB020460EB030301209C461EB900212A
:1003D80068E73846FAE7C6E9004CF8E7C7F1200CA9
:1003E800BB4022FA0CF41C432EFA0CF120FA0CF351
:1003F800B84001434FEA14490EFA07F5B3FBF9F880
:100408001FFA84FE09FB18300B0C08FB0EFA43EAAE
:1004180000439A4502FA07F240D9E31808F1FF3081
:1004280004D29A4502D9A8F102002344A3EB0A0397
:1004380089B2B3FBF9F809FB183308FB0EFE41EA51
:1004480003418E452CD9611808F1FF3304D28E453B
:1004580002D9A8F10203214443EA0040A0FB029814
:10046800A1EB0E014145CE46434602D306D14D4588
:1004780004D2B9EB020E68EB04030138002EA6D0B3
:10048800B5EB0E0261EB030101FA0CFC22FA07F34B
:100498004CEA0303F940C6E9003198E74046C5E74E
:1004A8004346D9E72DE9F341214802F079FD214877
:1004B80085686B6C4BBB6B6B6BBBDFF878801E4C35
:1004C8001E4FAB6923B301220DF10701404698473F
:1004D80001281DD19DF807200A2A01D00D2A1FD115
:1004E8002368002B1CDD002614491548FE5402F031
:1004F80057FD31464022114803F093FA01220721A3
:100508001048266002F0D1FCDBE798470028D2D1DA
:1005180002B0BDE8F081074898470028CDD1F7E739
:1005280023683E2B9EBF591CFA542160C9E700BFBF
:10053800F2420008CC3C000838020120F0030120F8
:10054800F7420008403C0008F8B506460024FFF7CB
:1005580051FE064F0546AC4200DBF8BD315DBB6875
:10056800013402485B689847F5E700BFCC3C0008B7
:1005780070B588B0254B6A4603F110051646186811
:10058800083353F8041C1446AB4203C42246F6D180
:1005980019880D229B780DF1130021800021A3708A
:1005A80003F03FFA1A4D284603F053F958B3194C93
:1005B800204603F04EF930B32A692846A968136823
:1005C80023F0800313604FF420220B68072198471B
:1005D800A3682BB19B6C1BB100220F49204698479A
:1005E800A3689B6A0BB10B4898473046FFF7ACFFEE
:1005F800002142F2107001F0E3FF002207210448B5
:1006080002F053FCFEE7002008B070BD0C40000863
:10061800403C0008CC3C0008AD040008014B1B68B6
:10062800184700BF00000120014B1860704700BF49
:100638000000012030B585B004460D461022002187
:10064800684603F0EEF902232A4621468DF8023067
:100658006846034B019302F0CBF905B030BD00BFEB
:100668002506000880B505460E461746984601F04F
:10067800C3FFDFF82090034603F03EFA04464246E3
:1006880049F8003039463046A84754F8090000F0C8
:10069800D9F900BF08000000034A0020536823F07E
:1006A80002035360704700BF002004E0064B1A683D
:1006B80042F400721A601A6842F480721A60034B9E
:1006C800034A1A60704700BF003C024048000120FE
:1006D8000024F400014B0360022070472C400008FE
:1006E80008B5034B1B689847BDE8084000F026B8DA
:1006F8000400012030BFFFF7FDBF00BF2DE9F04126
:100708000B4E0546DFF82C80324606EB0807CC1B5B
:100718000949204603F077F9A019083C4246002110
:1007280003F07FF907F108002C67BDE8F08100BFEE
:10073800000000000400000004400008074A936815
:1007480093F90E10002907DB5269934204D0044A3A
:10075800536843F080535360704700BFC0030120C3
:1007680000ED00E0264B70B515469A6A064612F071
:10077800100F9A6A14BF1124102412F0080F9A6AF5
:1007880018BF122492070AD5586B9A6A140634D5F2
:1007980019B19A6A22F080029A62132401E06FF07C
:1007A8001500174B9A6A12F0010F9A6A18BF1424A1
:1007B80012F0200F9A6A18BF1524D20602D49B6A39
:1007C8009B070AD50E4B5B68190506D5314600F024
:1007D80009FA10B180F309880224094B9A6A920633
:1007E80003D55A6A22F400525A629A6A204642F0A5
:1007F800FF029A6200232B7070BD6FF01500CCE7E2
:1008080000ED00E0134B9A6A12F0007F9A6A14BF59
:100818001E201D2012F0807F9A6A18BF1F2012F434
:10082800002F9A6A18BF212012F4802F9A6A18BFE5
:10083800222012F4003F9A6A18BF232012F4803F46
:100848009A6A6FEA024218BF24206FEA12429A623B
:10085800704700BF00ED00E0194B024610B5986ADA
:100868009C6A10F4805F14BF1720162014F4006FE0
:100878009C6A18BF1820A40509D5986B986A0004CB
:1008880004D51AB19A6A22F400429A6219200C4BD4
:100898009A6A12F4806F9A6A18BF1A20D2050CD48B
:1008A8009B6A13F4005F18BF1C20054A936A43F43F
:1008B8007F43936200230B7010BD1B20F5E700BF38
:1008C80000ED00E0484BF0B55B688BB004460025AE
:1008D800C3F3080385F31188BFF36F8F02F07F40DD
:1008E800B0F17F4F11D102F00C0008280DD010078D
:1008F8004CBF0C4601250022033B8DF80720032B33
:1009080005D8DFE803F0256468612C46F3E7002387
:100918009DF80720D2B902AE04F1200720680834F8
:1009280054F8041C3246BC4203C21646F6D1099A52
:10093800002D54D0C2F3080121B96FEA52226FEAA0
:100948004222099202A9184602F038FB0BB0F0BD0A
:10095800254BDA6A9107DAD4DA6A002AD7DBDA6A31
:100968005200D4D55A69A16942F480725A61BFF322
:100978004F8FBFF36F8F5A6931F8021C22F48072CF
:100988005A61BFF34F8FBFF36F8F4DF602729142DA
:100998000AD09A6AD2B24AB10DF107020121204663
:1009A800FFF7E0FE0346B3E72368B1E79A6A12F45B
:1009B8007F4F05D00DF107010120FFF74DFFF1E74B
:1009C8009B6AB3F5803FA2D3FFF71CFFEAE70DF15E
:1009D80007020021E3E70DF107010020EDE722F40B
:1009E800FF7222F00102ACE700ED00E0044B5A6907
:1009F80042F010025A615A6922F008025A6170479F
:100A080000ED00E0EFF30880EFF3098101B57246CD
:100A1800FFF758FF01BD00BF102080F31188084878
:100A28004FF40461401880F30988EFF31480022121
:100A3800084380F31488BFF36F8F00F099F8000023
:100A480040040120084B9B6883420BD1EFF30583D8
:100A580043B1064B5A6842F080525A605A6A22F4EF
:100A680000425A6202F094BFC003012000ED00E08A
:100A7800094A6FF00A0193689967084958674B68F3
:100A880043F080534B60002383F31188BFF36F8FCB
:100A98009368986F704700BFC003012000ED00E025
:100AA80015498A684FF030001044EFF3098C80E84C
:100AB800F01F102080F31288BFF36F8F0F4F4FF095
:100AC80000664A698A603E604FF070041419206815
:100AD8000B4C2060506F0023536780F3118804B5D6
:100AE800104600F0E7F8BDE8044002F1300090E855
:100AF800F01F8CF309887047C003012004ED00E063
:100B08003C0201201EF0040F0CBFEFF30880EFF346
:100B18000980816911F8021C0229FFD001B57246CB
:100B280002F052FA01BD00BF40B2002807DB0123E2
:100B3800410900F01F00024A834042F82130704703
:100B480000E100E040B2013100284FEA0111C9B2CA
:100B580006DB00F1604000F5614080F80013704743
:100B680000F00F00014B1954704700BF14ED00E06E
:100B78000F4A08B522F07F020E4B9A60BFF34F8FE1
:100B8800BFF36F8FD3F8882022F47002C3F888204F
:100B9800EFF3148323F0040383F31488BFF36F8FF8
:100BA80001F0AAF901F0B4FD00F05AF801F0F2F9E9
:100BB8000000000800ED00E042F8203C203A009BCD
:100BC80007495360019B21F001019360029B9161E9
:100BD800D3604FF08073D361002302654367704789
:100BE8006D060008094A0346906870B113F1160FA4
:100BF800006E05D0A0F140029A4205D8834203D284
:100C0800814228BF0020704700207047C0030120A0
:100C180015460C4A0E4608B50B4B9060026F1A60D9
:100C280000F048F82C4686F309884FF00000074B7F
:100C3800984720464FF000014FF000024FF00003A4
:100C4800034C2047C00301203C020120E12F00088B
:100C58006D060008014B10221A61704700ED00E094
:100C6800002304481021C2180133622B82F80013B4
:100C7800F9D1704700E100E008B5EFF30583064AB3
:100C8800103B02EBC30152F8330049688847BDE8BE
:100C98000840FFF753BD00BFF43C0008024B012198
:100CA800024A034800F076B8000005200000012041
:100CB8004C400008026E4021044B403A18461A6026
:100CC800034AC3E90112012100F06EB84002012075
:100CD80000000B15084AC2F898000B6823F01F03A0
:100CE800034343F01003C2F89C308B6843F00103C0
:100CF800C2F8A030704700BF00ED00E02DE9F043D6
:100D08000E4685B01F4604464FF00009DFF85480B0
:100D1800B14523DA6068D8B13FB1411E08421BD102
:100D28001F2819D92368194216D12368019302F0A4
:100D380067F9A3680343D0B20393D8F89050C5F37A
:100D48000725013DA84207D801A9FFF7C3FF421CA8
:100D580009F101090C34DBE76FF01502104605B004
:100D6800BDE8F08300ED00E0044B0522C3F89420B1
:100D7800BFF34F8FBFF36F8F704700BF00ED00E0E8
:100D8800BFF35F8F024B0022C3F89420704700BF67
:100D980000ED00E010B5034C01232278FFF7AEFF09
:100DA800207010BD300401200B4A08B500231278CA
:100DB800FFF7A4FF10F1160F07D0084A0021D2F858
:100DC8009030C3F30723984200DB08BDC2F89800AF
:100DD8000130C2F8A010F2E73004012000ED00E075
:100DE800544B2DE9F043544C85B0D3F89030256826
:100DF800C3F307239D4200F29A8000200C26FFF7D8
:100E0800BFFF85421AD14D4C68464D4F2570FFF7FC
:100E180061FC00250646DFF81C81DFF82891AE4208
:100E280013D1237800204349D1F89020C2F3072238
:100E3800934276DB0020FFF797FF42E0616806FBEC
:100E48000011FFF747FF0130DBE700984FEA051C68
:100E580000EB0511CB683B40B3F5000F48D00AD82A
:100E6800B3F5001F30D0B3F5800F36D0B3F5801F2F
:100E780010D00135D3E7B3F1807F42D0B3F1007FC2
:100E8800F7D150F80C30886802F0BAF84A6840F494
:100E9800802009E050F80C30886802F0B1F840F082
:100EA80088504A6840F4302003902078CDE9012327
:100EB800D8F89030C3F30723013B98422AD96FF042
:100EC800150005B0BDE8F08350F80C30886802F0D2
:100ED80097F84A6840EA0900E6E750F80C30886855
:100EE80002F08EF840F0E0604A6840F40030DBE73A
:100EF80050F80C30886802F083F84A6840F0827035
:100F0800D2E750F80C30886802F07AF84A6840F066
:100F18008870C9E701A9FFF7DDFE23780133237044
:100F2800A7E7C1F898300133C1F8A0007CE74FF07B
:100F3800FF30C6E700ED00E058400008300401200B
:100F48000000F0FF0000081108B5024B1B68984725
:100F5800002008BD4C020120034B044A1860937816
:100F680043F00203937070474C02012008000120EF
:100F78000649074821F00701C1F1005208B502F5FA
:100F8800A02201F0CEFF002008BD00BF47120120BB
:100F9800500201202DE9F041054600244FF00108D8
:100FA8000E4E0F4F2B7871691A19D2B208FA02F255
:100FB80001EA02008A4309D153FA84F3706157F8B1
:100FC80033201AB107EBC3035968904701346A7894
:100FD800E3B29A42E6D2BDE8F08100BF003C01408E
:100FE8005C020120044B18440023013300F8012B54
:100FF8009942FADC704700BF5400012007B5062269
:1010080001210020FFF7EEFF002206201146FFF71E
:1010180099FD012107220846FFF7E4FF0022072077
:101028001146FFF78FFD082201210220FFF7DAFFA2
:10103800002208201146FFF785FD0922012103201F
:10104800FFF7D0FF002209201146FFF77BFD0A2297
:1010580001210420FFF7C6FF00220A201146FFF7EE
:1010680071FD052117220846FFF7BCFF0022172053
:101078001146FFF767FD282206210A20FFF7B2FF75
:10108800002228201146FFF75DFD074A6B4692E8CB
:10109800030083E8030005481946826812689047F0
:1010A80003B05DF804FB00BF04400008B43B00082F
:1010B800034660B1B0FA80F2C2F11F02D2B205490C
:1010C8008856054A11680B431360FFF72DBDFF22B0
:1010D800F5E700BF54000120003C0140024A1368B4
:1010E80023EA000313607047003C0140032921D81C
:1010F800DFE801F0020C10190F4B9A6822EA00028F
:101108009A60DA6822EA0002DA6070470A4B9A6845
:101118000243F5E7084BDA680243DA609A6822EA84
:1011280000029A607047044B9A6802439A60DA6832
:101138001043D860704700BF003C014030B5B0B1E3
:10114800B0FA80F3C3F11F03DBB20B4850F8334009
:101158008C4204D100EBC3056D68954205D044B9B3
:1011680040F8331000EBC3004260002030BDFF237D
:10117800EBE76FF00F00F9E75C02012060B1B0FA0D
:1011880080F3C3F11F03DBB2044A002142F8331095
:1011980002EBC30251607047FF23F5E75C020120B0
:1011A80000F003020F23043292009340074A43EAF7
:1011B8009000C3B2023352F82320030C93FAA3F32E
:1011C80002EA1040B3FA83F3D84070470038014070
:1011D800214B10B5186814460B68092B13D0072B40
:1011E80008D883B1023B052B15D8DFE803F0132F8D
:1011F80013321923402B11D008D8342B0BD0382B9D
:1012080009D0302B07D06FF0850006E0442B0FD0B3
:10121800A82BF7E700202060002010BD8008FAE71F
:1012280000F0ACF81923B0FBF3F04FF4D87358432F
:101238004008F0E700F0A2F81923B0FBF3F04FF4F0
:10124800D87358430923B0FBF3F0E4E74FF4FA40AE
:10125800E1E70248DFE700BF4800012040787D0150
:1012680070B5424D00F0B4F8414C284601F07AFFC1
:1012780000F014FDA3683F4AC3F30313D35C20FABC
:1012880003F613781D41AE4202D2284600F034FD21
:10129800236823F480232360236843F48033236086
:1012A800334B1A689203FCD55A6F42F001025A6711
:1012B8005A6F9407FCD59A6802F00C02082A17D1D5
:1012C8001A68900707D41A6842F001021A60284A7F
:1012D80013689907FCD5264B9A6822F003029A6096
:1012E8009A6812F00C0FFBD19A6822F0F0029A600B
:1012F8001F4C236823F080732360636823F4403312
:101308006360636823F0706343F01063636000F008
:1013180039F8236843F08073236023689B01FCD568
:10132800A36823F0F003A360A36823F0030343F04A
:101338000203A3600E4CA36803F00C03082BFAD138
:10134800AE4202D3284600F0D7FC0B4B0020074AD8
:101358001A60A36823F4E05343F4A053A360A3687E
:1013680023F4604343F40043A36070BD00E6DF0C40
:1013780000380240434400084800012000487047F4
:1013880040787D010E4B0F495A6811400E4A0A43B6
:101398005A601A6842F080721A60A3F5E4331A683A
:1013A80042F480321A605A68D203FCD51A6842F4B3
:1013B80000321A60054A53689B03FCD5704700BF8A
:1013C800003802400080BCFF196C400000700040EB
:1013D800064B82B01A6C42F080521A641B6C03F000
:1013E80080530193019B02B0704700BF0038024050
:1013F80008B5074802F02DFA38B10648FFF7ACFDEA
:101408000448FFF711F9002008BD6FF01200FBE750
:10141800E03C0008211400080A2838B50446074DA6
:1014280004D1AB680D2128465B689847AB68E1B2E8
:1014380002485B689847204638BD00BFE03C00087A
:101448002DE9F843D0F804801746D0F810900D46DF
:10145800D8F808001E4601F0E8FDB7F5001F04465D
:1014680016D1D8F808402846FFF79AFE84420CD1D6
:10147800294601F0DAFD0446FFF730FE2046FFF763
:101488007DFE00212046FFF731FE0020BDE8F883ED
:10149800B7F5800F20D0B6F1806F19D0B6F1C06FC4
:1014A80018D0B6F1007F1AD102264A460F492046C5
:1014B800FFF744FEB0B9D8F80810284601F0B8FD87
:1014C80020463146FFF712FE2046FFF7F1FDDCE724
:1014D8000126EAE70326E8E76FF08500D6E76FF014
:1014E8001500D3E76FF00F00D0E700BF3B340008CA
:1014F80038B5036904465860084D284602F0A9F932
:1015080040B161682846AB680C311B68984700EA0F
:10151800E07038BD6FF01200FBE700BFB43B000875
:101528002DE9F047044600EBC10600251C4FB442E4
:1015380001D1002014E02068C30600F01F0911D46F
:10154800656845F02005C0F3481AC0F344200F2809
:1015580023D857F82080B8F1000F0DD16FF0120092
:10156800BDE8F087B9F1100F04D0B9F1110FEAD135
:101578006568E8E73025E6E7404602F06AF90028A2
:10158800ECD04B462A460AF00F01404601F067FFAF
:10159800002804F10804CADAE2E76FF01500DFE773
:1015A8009441000843681B6803F1080252E8002FC1
:1015B80042F0010203F1080040E800210029F3D1BC
:1015C800154A93421BD0A2F54C42934217D002F51C
:1015D8008062934213D002F5806293420FD002F5E5
:1015E800806293420BD002F54442934207D0A2F5A1
:1015F8001C42934203D002F58062934203D15A6899
:1016080042F040025A6053E8002F42F4807243E8E7
:1016180000210029F7D170470010014043681B687A
:1016280003F1080252E8002F22F0010203F108003A
:1016380040E800210029F3D1154A93421BD0A2F5B6
:101648004C42934217D002F58062934213D002F5C0
:10165800806293420FD002F5806293420BD002F56C
:101668004442934207D0A2F51C42934203D002F5AC
:101678008062934203D15A6822F040025A6053E8CC
:10168800002F22F4807243E800210029F7D1704727
:1016980000100140F8B50C46036941685D6823797C
:1016A800012B15D09F1E7E427E41B6026279022A26
:1016B80096BF444F4FF4005737F81270A279022AA8
:1016C80009D0042A2FD0003B18BF01231B0306E0D2
:1016D8004FF4C066EAE7B3FA83F35B091B07E279C4
:1016E8000968012A14BF4FF0000C4FF4407CA54252
:1016F8001CD10A6822F0805222F4B05232431A43B5
:101708000A604B6823F440533B434B6043681A68B4
:10171800936823F4407343EA0C0393602968BDE897
:10172800F84001F000BF4FF48053D8E7D1F800E04B
:101738000EF4C06E764506D0D1F800E02EF4C06EE7
:101748004EEA06060E6041680E68716801F4405161
:101758008F4204D0716821F4405139437160416867
:101768000E68316801F010218B4204D0316821F0F5
:1017780010210B433360436819688B6803F4407386
:101788009C4505D08B6823F4407343EA0C038B60B7
:1017980043681B689968490405D5032A09D09A68E3
:1017A80022F4804204E0032A03D19A6842F480427A
:1017B8009A6021682B68994203D001F0B4FE23682F
:1017C8002B60F8BDEC4200082DE9F3410646476856
:1017D80004695148206002F03CF820B96FF012000B
:1017E80002B0BDE8F0812068F96883681B689847F3
:1017F8000028F5DB01AA0021386A01F048FE00281C
:10180800EEDB019B002219791868FFF789FE002892
:10181800E6DB756833692C68D3F80480236823F005
:1018280001032360686802F014F80028D6D0D5E9CF
:1018380001018368DB6803B1984754E8003F43F02F
:101848000C0344E80032002AF7D141463046FFF73E
:1018580021FF2B7D1BB1A36843F00803A3606B7DB8
:101868001BB1636843F400436360AB7D1BB16368DD
:1018780043F480336360EB7D1BB1636843F400334A
:1018880063602B7E002B38D0244B9C421BD0A3F5E1
:101898004C439C4217D003F580639C4213D003F558
:1018A80080639C420FD003F580639C420BD003F504
:1018B80044439C4207D0A3F51C439C4203D003F544
:1018C80080639C4225D173681A68936843F4804307
:1018D800936023686A7E23F0787343EA4253236057
:1018E8002368AA7E23F4F81343EA02432360EB7EBD
:1018F8001BB1A36843F40043A360236843F00103CA
:101908002360E3699B02FCD530467B6A9847002038
:1019180066E76FF0150063E7B43B0008001001406C
:10192800F8B5436802460E4691F805E01C6803695D
:1019380008795D6801288B791ED1BEF1020F72D932
:10194800022B1F464FF4C0614FF4005C00F0838007
:10195800042B7BD020B1C31E012B79D94FF48050C2
:10196800BCF5805F00F08180BCF5405F7FD0BCF1A2
:10197800000F1CD101231BE002280AD1BEF1020F7F
:101988005DD9022B1F464FF480610BD04FF4005CE9
:10199800DEE7BEF1020F55D9022B1F4654D10028AD
:1019A8005FD00021C31E012B52D900200227032338
:1019B80073454DD101F0D2FDB84249D1F37903B353
:1019C800012B56D12C4B9C421BD0A3F54C439C4277
:1019D80017D003F580639C4213D003F580639C42C3
:1019E8000FD003F580639C420BD003F544439C421F
:1019F80007D0A3F51C439C4203D003F580639C42A7
:101A080026D123683146104623F001032360FFF7EF
:101A180041FE236843F00103236096E8030085E84C
:101A280003000020F8BD4FF4C061144F022B37F8B3
:101A38001EC01F468CD170B94FF0805090E74FF40C
:101A48008061F2E70021F0E700219FE7002885D0B8
:101A58006FF08500E6E7C31E012BF9D902270020A5
:101A68007EE701464FF08050A1E70023A0E702235C
:101A78009EE7032BA6D0EBE700100140EC420008DC
:101A88004FF0E0230F4910B59C691A6908689B69F3
:101A980002F480320C4934B993B903464AB90A684A
:101AA8001044C01A10BD002B08BF03460AB9A34250
:101AB800F5D90A6802440A604FF0E0221269EEE79D
:101AC8000446F3E7BC030120B80301200A4B1022A7
:101AD800002083F8232045F26042084B1A6045F243
:101AE8005F42074B18604FF0E0235A6198611A690A
:101AF80042F007021A61704700ED00E0BC030120C4
:101B0800B8030120684620F007018D4619B5FFF794
:101B1800B7FF1149114B0868D3E90042001942F197
:101B28000002C3E900020E4A00230B6045F260433D
:101B3800D2E90041001BB0FBF3F043431B1941F10C
:101B48000001C2E9003100F0CBFEFEF7F7FDBDE869
:101B580019408546704700BFB80301209000012056
:101B6800880001202DE9F041DFF8E08099B1421C9E
:101B78000BD14FF0E022136923F0010313614FF0FA
:101B88007F43C8F80030BDE8F081D8F8006001282C
:101B980007DC00270BE0431CD8F80060F7D140F2BF
:101BA8000730B0F5427FA8BF4FF44270471EEFF3ED
:101BB8001185102383F31288BFF36F8FFFF760FF3F
:101BC800234C4FF0E0239969D4E9002380184FF0A3
:101BD800000243F10003C4E900031E4B1A601E4BC8
:101BE8001A68831A2ED445F2604C0CFB073303F5B0
:101BF800A8435F33B3FBFCF7131A40F246520CFBC1
:101C08000733934238BF1346144A934228BF1346FA
:101C1800C8F800304FF0E022013B9069536100237F
:101C280081429361A1EB0003D4E9001238BF9B19EC
:101C38005B1842F10002C4E9003285F31188BFF352
:101C48006F8FA0E740F24653E2E700BFBC030120D4
:101C580090000120B803012088000120A06EFF0039
:101C680038B5EFF31185102383F31288BFF36F8F14
:101C7800084B1C68084B1B68E41AFFF701FF85F343
:101C88001188BFF36F8F45F260432044B0FBF3F037
:101C980038BD00BF9000012088000120134908B515
:101CA8008B6803F00C03042B1BD0082B1BD14A684C
:101CB8004B68496802F03F0213F48003C1F38811AE
:101CC8001ABF0B4800230B48A1FB0001FEF778FA66
:101CD800064B5B68C3F3014301335B00B0FBF3F0D1
:101CE80008BD0348FCE70348FAE700BF0038024094
:101CF80040787D010024F40000285DD02F4B1A683D
:101D08001B6802F44042B2F5404F33D113F48033DC
:101D180010D102F10F6202F58C52904248D8284A3D
:101D2800904247D8274A904235D8274A904209D945
:101D380002230DE0254B984238D8234B98424FF0A8
:101D4800060305D8224A904202D9012B38BF012345
:101D580020490A6822F00F021A430A600A6802F052
:101D68000F02934202D00A6802F00F02981A18BFB5
:101D78000120704703F44043B3F5004F05D103F148
:101D88000F6303F5A343984212D80D4B984211D81C
:101D98000C4B984201D90323DAE70B4B9842C7D87A
:101DA8000B4B984294BF00230123D1E70723CFE7C9
:101DB8000523CDE70423CBE70120704700700040DE
:101DC800000E2707804A5D05008793038058840C1E
:101DD80080C3C901003C024038B5EFF311851023D8
:101DE80083F31288BFF36F8F064B9C6801F044FDA4
:101DF80085F31188BFF36F8F2046BDE83840FEF7A2
:101E080021BE00BFC003012038B5094B53F820405C
:101E1800013053F82050A54200D838BD636823B17B
:101E2800204601F02CFD0834F5E723689847FAE7C7
:101E3800D44200082B4B0122032070B52A4C86B0EF
:101E48002A4D1A70FFF7E0FF00F0CCFD01F033FDDA
:101E58000420FFF7D9FF26463034AE4210D3224C77
:101E680000F0D4FA224EAC4226D300F0E3FAFEF793
:101E78007FFB204A137B23F00103137306B070BD68
:101E880054F80C3C059354F8103C049354F8143C53
:101E9800039354F8183C029354F81C3C019354F8EB
:101EA800203C009354E90A2354E90C0100F0DCF8C3
:101EB80054F8303C5E65CEE7D4E90A23B3F1FF3F1E
:101EC80008BFB2F1FF3F05D052EA0301206803D1F1
:101ED80001F0FDFC3034C6E73146183000F086FCCE
:101EE800F8E700BF3104012004400008044000085E
:101EF800913900081801012006480021064A08B552
:101F0800121A01F0D4FC0548054A0021121A01F002
:101F1800CEFC08BD88000120340401200000002008
:101F28000000002070B5002386B00122144E0193F2
:101F38000446144D06EBC0161349CDE904230F22BD
:101F4800CDE9023214234FF4A07203FB00554FF47D
:101F5800C0700E4B00FB04113046009500F084F869
:101F6800737B0B4A23F00403EE602C7473734FF4F5
:101F7800046304FB033313446B6006B070BD00BFF9
:101F880098000120C0030120800C0120C1380008FE
:101F980040040120BFB50020FFF736FF2A4B83F32A
:101FA80008882A4D0024F023294E2A4F85F822302C
:101FB800EC772C766C76AC7685F820406B6A43F427
:101FC800E0236B62FEF712FDFEF744FE4FF0FF338D
:101FD800AB62EB62FEF704FF1F4DFEF75FFE1F4B7F
:101FE80040F20112B3609A81DC66C3E9184401F03B
:101FF8002FFCFEF75BFB0120FFF706FF0220FFF72F
:1020080003FF00F04BFA164B75614FF4806205939D
:102018000123144928460094CDE90343CDE901443E
:102028003B4600F021F86A7B0646284622F0040267
:102038006A7301F060FC2046FFF774FF3A463146A8
:102048002846FEF7E5FD00BF800C012000ED00E00A
:10205800C00301203D1E000818010120980101203D
:1020680053440008000E012007322DE9F04322F006
:10207800070285B00E461F46109900F158037F32BB
:1020880004460173042122F03F0206F1400941731E
:102098003F2AA2F14008C0E916334FF000038360DD
:1020A8000F98E373A073C4E9063305D883F3118846
:1020B800BFF36F8F084602DFB51820462946FEF7A2
:1020C8001DFB07300E9B314620F00700C4E9189825
:1020D800A0662D1A029320460D9B2A4601930C9B5D
:1020E80000933B46FEF768FD00236365044B9B683D
:1020F80003B1DB6E2846E36605B0BDE8F08300BF98
:10210800C003012038B590F90D200146437B002A11
:1021180004DA03F07F03437301F0DBFB0D4D2A461D
:10212800AB6852F8184F944200D004B9EC688B425F
:1021380007D05A7BD20604D1DA897F2A01D9A2694D
:102148002AB1A34202D0204600F08AFA23466B61E6
:1021580038BD00BFC003012070B590F90D30427B37
:10216800002B36DBD10634D18369002B31D162F0E4
:102178007F021B4C4273224652F8181F914218BF27
:102188000B46E16923B9C0E900210860E0610CE071
:1021980090F90E5093F90E60B5421BD0AE4219DD8E
:1021A8005968C0E9003108605860A569954200D0B7
:1021B80005B9E568A3685A7BD20604D1DA897F2A73
:1021C80001D9AA6952B1AB4202D0284600F048FAB8
:1021D800656170BD9942D6D01B68D3E76361F8E7A3
:1021E800C0030120002A2DE9F8430CBF4FF0100965
:1021F8004FF00809427B04460F4619EA020F21D125
:1022080049EA0203D2092AD14373B9F1080F2CD045
:102218004FF00008344E334653F8185F9D4200D003
:1022280005B9F568B368AB4202D0284600F018FA41
:10223800B9F1100F756144D1BFF35F8F637B23F051
:1022480060036373284B9B68A34247D1EFF3058370
:10225800002B43D13846BDE8F843FEF709BC03F02C
:102268007F03437301F035FBCFE7A36813B1204622
:1022780001F037FB04F1180004F1580601F0AAFB3D
:10228800A56DAE4211D04FF0000875B1284601F097
:1022980028FB05F1180001F09DFB2846C5F8788059
:1022A800FFF75AFFA56DAE42EFD10F4B9B689C42DA
:1022B800AED1EFF30588B8F1000818BF4FF0010858
:1022C800A8E7B8F1000FB7D0084B40F201129A8185
:1022D8000022B360DA66C3E91822ADE787F31188F4
:1022E800BFF36F8FBDE8F883C00301209801012078
:1022F80070B590F90D200146437B002A04DA03F0FB
:102308007F03437301F0E5FA4B7B1D4C63F07F03B9
:1023180022464B7352F8183FE069934208BF0023E6
:1023280023B9C1E900200160E1610CE091F90E5088
:1023380093F90E60B5421ED0AE421CDD5868C1E963
:10234800003001605960A569A368954200D005B9BD
:10235800E5688B4207D05A7BD20604D1DA897F2AF6
:1023680001D9AA692AB1AB4202D0284600F078F90F
:102378002B46636170BD9842D3D01B68D0E700BF7D
:10238800C003012049B9EFF3058030B9054B5A69FC
:102398009B689A4201D0FEF76BBB81F31188BFF3AB
:1023A8006F8F7047C003012010B5EFF3118410221E
:1023B80082F31288BFF36F8F427B510704D484F3F2
:1023C8001188BFF36F8F10BD22F004024273FFF72C
:1023D800C3FE21460248BDE81040FFF7D3BF00BF47
:1023E80032040120034648B9EFF3058232B9064AA0
:1023F80051699268914201D0FEF73ABB83F3118884
:10240800BFF36F8F704700BFC0030120EFF3118146
:10241800102383F31288BFF36F8F054B9A68D37B21
:10242800013BD37381F31188BFF36F8F704700BFEF
:10243800C003012070B5EFF31186102383F31288CF
:10244800BFF36F8F144DAB68DA7B0132DA732A461B
:1024580052F8184F944200D004B9EC685A7BD2065F
:1024680004D1DA897F2A01D9A2692AB1A34202D00C
:10247800204600F0F5F823466B6186F31188BFF318
:102488006F8FEFF31180102383F31288BFF36F8FE0
:10249800BDE87040FFF7A6BFC0030120024B03F15F
:1024A8001802C3E906227047C0030120F8B5EFF30C
:1024B8001186102383F31288BFF36F8F1D4CA06819
:1024C8002146437B03F07F03437301F002FAA368BC
:1024D8005A7B62F07F025A7351F8182FE0698A42DA
:1024E80008BF002222B9C3E900100360E3610CE0D1
:1024F80093F90E5092F90E70BD4217D0AF4215DD18
:102508005068C3E9002003605360A5698D4200D07C
:1025180005B9E568A3689D4202D0284600F0A0F8F6
:1025280030466561BDE8F840FEF7A2BA8242DAD0CB
:102538001268D7E7C003012050EA01032DE9F041F2
:1025480005460E4603D1FFF7B1FF00202BE0831CA0
:1025580071F1FF3329DB01F052FA2C18EFF31188DF
:10256800102383F31288BFF36F8F124F124BB86892
:102578001860FFF7C7FDB8682A4610493346183077
:1025880000F034F9BA684046537B43F010035373A4
:10259800FEF76EFA01F033FA201A63EB0303012801
:1025A80073F10003D1DBBDE8F0816FF00104241A58
:1025B800D4E700BFC0030120E003012091390008DF
:1025C800B1F1FF3F08BFB0F1FF3F08B506D1094B95
:1025D800986801F09FF94FF0FF3008BDFFF7ACFF96
:1025E8000A22C11709304FF0000341F10001FDF73D
:1025F800E7FDF2E7C0030120014B9868704700BF70
:10260800C0030120044B0122C01A044BC0105843D8
:10261800034B1A54704700BF18020120ABAAAAAA9C
:1026280032040120C3897F2B12D80A4B1B6863B17F
:10263800094B90F90E201B689A4209DB437BDB06A5
:1026480006D1064BC31A18BF012303F001007047D7
:102658000023FAE7E8030120E403012098000120A1
:102668000E4B70B51E7C05460D4C06EB460304EB7D
:10267800C304204601F0AEF90A4B002228469A55B9
:10268800FFF7D0FF48B1084B204608491A68013ABD
:10269800BDE87040D31700F0A9B870BDC003012091
:1026A8001802012032040120E80301200D26000849
:1026B80038B5EFF31185102383F31288BFF36F8FBA
:1026C800104B114A9C681068A04206D1FFF7C8FF5A
:1026D80085F31188BFF36F8F38BD00211B7C116013
:1026E8000A4AD35C002BF3D02046FFF79BFF002853
:1026F800EED0637BDB0602D12046FFF7F9FD2046CA
:10270800E4E700BFC0030120E003012032040120F8
:102718000A480B4A0B49121A08B501F0CAF80A48C8
:102728000A4A0B49121A01F0C4F80A480A4A0B4926
:10273800121ABDE8084001F0BCB800BF0000012033
:1027480084000120904400080000012000000120BE
:1027580090440008000000200000002014450008F4
:10276800034B1B680BB9FFF77BBA0020704700BF0B
:10277800EC03012030B570B10B4B5B6898420AD06E
:10278800036843B1D3E90421D0E90445121941EBA8
:102798000501C3E90421D0E9003213605A6000231F
:1027A800C0E9003330BD00BF4C0001200E4B10B50E
:1027B8001C689C4204D1FFF7D3FF6FF0004010BDA6
:1027C800FFF7CEFF002CF8D0D4E904321B1A62EBD5
:1027D800E072B3F1004F72F10001EEDA002AACBFEB
:1027E80018460020EBE700BF4C000120B3F1FF3F83
:1027F80008BFB2F1FF3FF8B504461D4616465ED045
:102808008160EFF31187102383F31288BFF36F8F72
:10281800013275F1FF3324DA2E496FF00103D1E953
:1028280000209B1A4FF0FF3262EB00009E1B60EB0A
:102838000500012E70F1000301DA01260020C4E929
:102848000460254ED6F800C07568B44508BF4FF03F
:10285800000CBCF1000F0DD1C4E900652C60746058
:102868001CE0FFF77DFF013645F10005361845EB02
:10287800E070E4E7DCE90420D4E90431934271EB29
:10288800000E1DDAD21ADCF8043060EB0100CCE946
:102898000420C4E900C31C60CCF804403368B34288
:1028A80009D09C4207D10D4B1C6824B9FFF77EFF65
:1028B8002146FFF757F987F31188BFF36F8FF8BDEB
:1028C8009B1A61EB0001AC45C4E90431C4D0DCF8C3
:1028D80000C0BEE7300201204C000120EC030120BB
:1028E8002DE9F84FEFF3118C102383F31288BFF30F
:1028F8006F8FDFF8B4A00024DFF8B09000252C4FCC
:10290800C9F80000DAF80000504508BF0020D9F8DF
:102918000030E046D7E9002178B34FEAE37ED0E9FA
:10292800046CB3427EEB0C0B05DAF61A6CEB0E0462
:10293800C0E9046421E0B21841EBE671C0E904453E
:10294800C7E90021FFF716FF88F31188BFF36F8FDF
:1029580083689847EFF31188102383F31288BFF335
:102968006F8FD9F80030C446DAF800009B1B504539
:10297800C9F80030CBD1D7E900219A184FF00004EC
:1029880041EBE373C9F80040C7E90023FFF70EFFE6
:102998002146FFF7E7F888F31188BFF36F8FBDE88A
:1029A800F84FFFF785BE00BF4C000120EC03012063
:1029B8003002012010B5EFF31184102383F312883D
:1029C800BFF36F8FFFF7CCFE054A0346D2E900013B
:1029D800181841EBE37184F31188BFF36F8F10BDB2
:1029E80030020120014800F0DBBA00BF584400085B
:1029F8002DE9F04F8DB043680293837815469A0706
:102A0800804640F10D8100240E78002E00F00A81E6
:102A1800252E0BD04B1C03930134029B41463046B4
:102A280098470028C0F2F6800399EDE74E788B1C92
:102A3800252E0393F0D00027B946BB46BBF11F0FE4
:102A480038D8A6F12003102B0AD8DFE803F02A09AA
:102A580009300909092109090928092D09091F004F
:102A6800A6F13003092B33D92A2E37D11BF0400F9A
:102A780055F8043B40F08280002BA7BF4BF0200B99
:102A88009946C3F100094BF0280B01E04BF0010B0C
:102A9800039B13F8016B0393002ECFD130E04BF06A
:102AA800020B4BF0040BF3E74BF0080BF0E74BF08D
:102AB800100BEDE7BBF17F0F19D8A6F13003092BF6
:102AC800D2D81BF0400F03D00A2101FB0737DFE7FC
:102AD8000A2101FB09394BF0200BD9E72E2E06D12C
:102AE8001BF0400F40F09E804BF0400BD0E76C2E5F
:102AF80031D02BD8682E36D06A2E3CD04C2E3AD006
:102B0800002F46F02003B8BF2BF04002A3F1650167
:102B1800BCBF1FFA82FB0027022901D9612B2FD1E4
:102B2800073525F00705DFF8ACA2083507271BF0A5
:102B3800080F66D00AEB070B56465E4563D1A4EB37
:102B48000A0A06EB0A02A9EB07096FE1742E9FD067
:102B58007A2E9DD0D4E71BF0800F18BF4BF4007B72
:102B68004BF0800B94E71BF4807F18BF4BF4007B7D
:102B78004BF4807B8CE74BF4207B89E71F4687E783
:102B8800A6F16301122900F2F080DFE811F01300CA
:102B98004F00EE00EE00EE00EE004F00EE00EE00FB
:102BA800EE00EE00EE00FE00E900EE00EE001B0075
:102BB800EE00AF0055F8043B8DF8183001270DF1F1
:102BC800180AB4E755F804AB834BBAF1000F08BFF5
:102BD8009A461BF0400F14BF39464FF0FF3150465C
:102BE80000F027FF0746A2E7029B414620209847AE
:102BF80000280FDB013EB742F6D34C44A41BB14674
:102C080098E74E46F7E716F8010B029B41469847AE
:102C1800002892DA98F8023043F0040388F802306A
:102C28004FF0FF3420460DB0BDE8F08F1BF0800F49
:102C380034D01BF4007F2CD0073525F00705AA46B1
:102C480069685AF8080B2BF010050029ADB237DA7D
:102C5800404261EB410145F480650DF1180B0A23F0
:102C68005A4600F0F2FEA0EB0B0301936B0662D507
:102C7800019B25F001019F4289B240F3A180002EFB
:102C880000F0998015F0100240F09C80BB460D467C
:102C980023E0AA465AF8040BC117D4E7AA461BF446
:102CA800807F5AF8041B01D10846F5E71BF4007F22
:102CB80015BF48B208B241F3C01141F3C031C2E7B1
:102CC80050EA0103C9D11BF0400FC6D0002FC4D170
:102CD8002BF0110295B2BB46019740F2064115EA66
:102CE80001021CBF0BF1010B00222CE02BF010029B
:102CF8001FFA82FB0A231BF0800C49D01BF40071D9
:102D08001DBF073525F00705AA46AA461ABF5AF877
:102D1800080B69685AF8040B50EA010545D12BF0F5
:102D280016051BF0400FADB242D0002F40D12BF05A
:102D3800170295B2019715F0100248D0019B002E9A
:102D480042D103F1010B29075AD4EB0706D5D9451F
:102D58006FDD0199A9EB0B035F18CB465B4649E091
:102D68004BF0100B10237826C5E7782B04D1C6F159
:102D7800780343F01003BEE7029B4146252098479D
:102D88000028FFF647AF023447E608230026B2E7DB
:102D9800AA461BF480715AF8040BBDD01BF40071CD
:102DA8001ABFC0B2614680B2B6E72BF0060295B2F0
:102DB8000DF1180B54E725F01105ADB2BB468CE7B1
:102DC8000D46B8E73B460D4603F1020BBBE7DDF8BD
:102DD80004B082E78744000880440008CDE9043243
:102DE8004146029B202098470028FFF613AF049B1A
:102DF800059A01339945F1DCA4EB0B01CC189B46ED
:102E08000AB3029B4146302098470028FFF602AFDC
:102E18008EB901342744019B391B994224DC1D4695
:102E28005DBB019AA9EB0B0922445546144691440F
:102E380035E0019F92E7023441463046029B9847AD
:102E48000028E7DAE6E640F206410D42E2D015F046
:102E5800020F14BF2B20202015F4806F04F1010409
:102E6800414618BF2D20E9E7029B4146302098478C
:102E7800002804F10104CEDACCE606AB013D414658
:102E8800585D029B98470028CADAC3E6029B414670
:102E980020209847002804F10104FFF6BBAEA9EBF7
:102EA8000403002BF2DCBFE57047012303FA01F1AC
:102EB80003691B68194218BF82F0010212B18368C6
:102EC800DB68184783681B69FBE700EBC100408893
:102ED80040087047F8B50346FFF7F7FFB0FA80F0EF
:102EE800CA000C468DB2C0F11F00171D063203EB55
:102EF800800CDCF8106056B9012101FA00F0D9689D
:102F08000143D960CCF81040DD539D52F8BDF10063
:102F18000431585AD85303EBC0009E52C5805D5205
:102F2800F4E7043A2DE9F041CC1D11444FF00008B4
:102F380024F0070421F007010E1B0460414604F148
:102F48001000F708C4F80C80B7FA87F2A760C2F13E
:102F58002405C2F12002AD009200073500F061FDA2
:102F6800A4F800802046ED086B0004EBC50243F08E
:102F7800010363807B1B59005180A21924F8355046
:102F88002946A2F80280A35304EBC7035A8842F0EB
:102F980001025A80BDE8F041FFF79CBF002070474E
:102FA8000FB407B504A951F8040B0191FDF742FBD2
:102FB80003B05DF804EB04B070477047012801D1F5
:102FC800EFF30583FEF708BF01460068FFF7F6BF79
:102FD80000210120FFF7F2BF61B662B680F31188C5
:102FE800BFF36F8F704772B6002383F31188BFF366
:102FF8006F8FBFF34F8F30BF62B6BFF36F8F7047CD
:10300800202809D9B0F1004F08D80138B0FA80F06B
:10301800C0F11F0040007047082070473E207047ED
:1030280008B5FDF791FF002008BD012088407047D2
:1030380000F003020F2304329200934043EA900009
:10304800C3B2020C9B0092FAA2F203F18043B2FAD7
:1030580082F203F59C33914010B59C6824EA104035
:103068000143996010BD0B6882B0A3F13002782A41
:1030780012D803F18043486803F50E331A680243F7
:1030880000201A600B6803F1804303F50E331B68B8
:103098000193019B02B070476FF08500FAE70B6857
:1030A800A3F13002782A0AD803F180434968002046
:1030B80003F50E331A6822EA01021A6070476FF0AE
:1030C800850070470138082809D840F27513C340B5
:1030D80013F0010F14BF00206FF0850070476FF0E8
:1030E8008500704710B50868FFF7ECFF002820DB63
:1030F8004A68FF2A1CD0D3B2C2F34234C2F3042276
:1031080003F1804304FA02F203F50E33186820EA4B
:1031180002021A604968CBB2C1F30242C1F304212A
:1031280003F180438A4003F50E33186802431A609E
:10313800002010BD086808B5A0F13003782B0AD824
:1031480000F180404B6800F50E300268934314BFCD
:103158000120022008BDFFF7B5FF002814BF012099
:103168000220F7E77047436800205B681B690B6023
:10317800704743685B68586942400A4042400020F3
:103188005A617047436800205B68996170474368DB
:10319800090400205B6899617047436800205A68F9
:1031A80053694B405361704710B503699868F8B18B
:1031B800884219D1DC680868A142986000D1D860BB
:1031C800002008602AB19A680A60DA68996002B932
:1031D800D960002010E0814206D108682060D868D4
:1031E8008142EDD1DC60EBE7044600680028F2D1AB
:1031F800002AE8D16FF0150010BDF0B54468012031
:103208001E46C2F38013676888408B404FF0030E58
:1032180027EA000702F030053B43202D90FAA0F77B
:10322800B7FA87F76360D4F808C0C2F3C1134FEA4E
:103238004707C2F341220EFA07F72CEA070C90FA67
:10324800A0F7B7FA87F74FEA470703FA07F343EA05
:103258000C03A36090FAA0F3B3FA83F3E7684FEA8C
:1032680043030EFA03F327EA030790FAA0F3B3FA2D
:1032780083F34FEA430302FA03F242EA0702E260E9
:1032880016D107292BD8226A90FAA0F32BB3B3FAE8
:1032980083F39B000F2101FA03F322EA030290FA59
:1032A800A0F3B3FA83F39B0006FA03F313432362F4
:1032B80090FAA0F3B3FA83F3032190FAA0F05B002D
:1032C800B0FA80F022682D0901FA03F3400022EADF
:1032D800030385401D432560F0BD2B46D9E7030A4B
:1032E800616A93FAA3F282B1B2FA82F292000F27CE
:1032F80093FAA3F3B3FA83F307FA02F29B0021EAE5
:1033080002029E4016436662D2E72A46EEE712F4AE
:10331800003CF8B506460C461346076927D09A07BD
:103328001ED55D0740F182805022D80603F440354F
:1033380018D542F4007225B1396921FA04F0C007A2
:1033480046D518036AD5716801234968A3408B6183
:10335800002321467068FFF750FF002D4CD114E080
:103368001022E2E79906E6D542F48062E3E7D0034B
:1033780002F4403520D5DA0612D5002D46D12B4669
:103388004FF400727068FFF738FF3B6923FA04F2C4
:10339800D20731D50122A24023EA02033B612BE088
:1033A80013F0200004D04DBB2B464FF48062E9E7B0
:1033B800B5B92B462A46E5E715B92B463022E1E791
:1033C800396921FA04F212F0010F4FF030020ED1E0
:1033D8000120A04001433961BCF1000FB1D106E0E2
:1033E800396921FA04F212F00102F1D002460023F1
:1033F80021467068FFF701FF0020F8BD396921FAFE
:1034080004F212F0010F4FF48062E0E7396921FA03
:1034180004F212F0010F4FF40072D8E7590397D560
:1034280001213046A140FFF7B2FE91E76FF0850019
:10343800E3E770B50B468968054611B15E680C680C
:1034480001B970BD8A682A4002D04B683046984757
:103458001CB1236821461C46F2E72346FAE7F8B573
:103468001F46044640680E461546FFF7C6FE112F54
:1034780007D101212B0501FA06F104D563685B68C1
:1034880099610020F8BD2046FFF781FEF9E730B5C5
:10349800036813600579046804EBC504A34202D3EA
:1034A8006FF0010030BD5C798C4201D00833F0E741
:1034B8000020F7E74368C1F34B1001F01F011B68B8
:1034C800C05801238B4003424FF0000014BF012372
:1034D80000231370704710B54368C1F34B1001F017
:1034E8001F011A68012384588B402343835000200E
:1034F80010BD10B54368C1F34B14012201F01F0140
:1035080018688A40235823EA02032350002010BD7C
:1035180038B504460D46FFF7DEFF29462046FFF77B
:10352800E8FF002038BD37B502690C4643681068CB
:103538001D68D9688368DB6873B101AA98470028B9
:103548000ADB2B6823F400432B60019B03EB540335
:10355800B3FBF4F39BB2EB6003B030BDB0F5805F12
:1035680007D0B0F1805F09D1002914BF01200220E3
:103578007047002914BF032004207047002914BF96
:1035880002200320704743681B68D869DA69C0F3D2
:10359800C000D107DA6948BF40F002009207DA6933
:1035A80048BF40F004005107DA6948BF40F02000E6
:1035B800D20504D54FF4807240F008001A62C107A2
:1035C80001D508221A62820701D501221A62410731
:1035D80001D502221A62820601D504221A627047B6
:1035E80043681A6852E8003F43F0400342E800315C
:1035F8000029F7D1704743681A6852E8003F23F062
:10360800400342E800310029F7D1704743681A683F
:1036180052E8003F43F0200342E800310029F7D187
:10362800704743681A6852E8003F23F0200342E8D5
:1036380000310029F7D1704743681B68D869C0F387
:1036480040107047012070470369C3E902127047B0
:10365800026993680BB1D16818477047002225208A
:1036680008B51146FDF76EFA2520BDE80840FDF7BC
:103678005BBA0022472008B51146FDF763FA4720D8
:10368800BDE80840FDF750BA43681B68D869C0F325
:103698008010704743681B68D86910F0800002D01A
:1036A8001868C0F38010704710B5026904460B46CD
:1036B800526812680A6042681268126802F4C062AE
:1036C800B2F5806F33D0A2F5C060424242411A7110
:1036D80062681268526802F44052B2F5805F28D0DE
:1036E800B2F5405F27D0002A0CBF012203225A718D
:1036F800626812681068116800F0102001F4C06157
:10370800FFF72CFF9871626800201268926802F433
:103718004072A2F540714A424A41DA71616809680B
:10372800896811F4804F18BF0322DA7110BD022294
:10373800CDE70022DBE70222D9E738B543680C461B
:103748001B681868196800F0102001F4C061FFF7C1
:1037580005FF04281AD0D86910F0800015D0EFF3BF
:103768001181102080F31288BFF36F8F0020151A83
:10377800002D06DDDD692D0603D5255C01309D622F
:10378800F5E781F31188BFF36F8F38BD6FF08500BF
:10379800FBE710B5436810201B68DA691206FCD5F0
:1037A800EFF3118280F31288BFF36F8FDC69240670
:1037B80004D482F31188BFF36F8FEEE7996282F326
:1037C8001188BFF36F8F10BD43681B68DA699106D3
:1037D80002D51A68920607D4D86910F0400004D0C0
:1037E8001868C0F3801070470120704738B54368E7
:1037F8000C461B681868196800F0102001F4C061B5
:10380800FFF7ACFE04280FD000200821151A002D60
:103818000CDDDD69AD0609D55D6A25540130DD6929
:103828002D07F3D51962F1E76FF0850038BD4368BD
:103838001B68DA69100701D508221A62DA6992064C
:1038480003D55B6A00200B7070474FF0FF3070475C
:10385800704740B1C368587810F001001EBF18784F
:10386800B0FA80F040097047EFF31183102383F317
:103878001288BFF36F8FFEE708B5FFF7F5FF10B5A5
:10388800D0E9003433B90020E268537843F00103EB
:10389800537010BD204698470028F4D00028E368EC
:1038A800B8BF4042FF28A8BFFF201870ECE700F01F
:1038B800B8B800F0A8B87047102408B5EFF3118322
:1038C80084F31288BFF36F8FFFF78DFBF6E7FEF7DF
:1038D8006BBDD0E9003213605A600023C0E90033A1
:1038E800704708B5FFF7F5FF437B23F002034373E6
:1038F8000023836008BD10B5EFF31184102383F310
:103908001288BFF36F8FFEF727FC84F31188BFF38B
:103918006F8F10BD10B50446183000F05BF8EFF358
:103928001181102383F31288BFF36F8F627B1A40D3
:1039380004D081F31188BFF36F8F10BD2046BDE816
:103948001040FEF74FBC38B50446EFF3118510233D
:1039580083F31288BFF36F8F437B13F0280F0BD1CB
:1039680083680BB1FFF7BDFF637B51B903F0FB031D
:1039780020466373FEF7F0FB85F31188BFF36F8F62
:1039880038BD03F0EB03F3E701211838FFF7DBBF7D
:10399800EFF31181102282F31288BFF36F8F027B3D
:1039A800D2070CD581F31188BFF36F8F002383F3FF
:1039B8001188BFF36F8F0423184602DF7047437BDB
:1039C8001B0704D581F31188BFF36F8F704701225D
:1039D800FEF708BC10B5EFF31184102282F31288A9
:1039E800BFF36F8F03683BB1FEF7C4FE002084F37A
:1039F8001188BFF36F8F10BD6FF01500F7E708B59A
:103A0800FEF7D8FF08BD0A44914200F1FF3300D108
:103A1800704710B511F8014B03F8014F9142F9D1E5
:103A280010BD02440346934200D1704703F8011BBE
:103A3800F9E710B5024601448A42134603D01C78C0
:103A48000132002CF8D1181A10BDF0B5C3F13707B0
:103A58000446FFB203F01F031046082BE6B233D02A
:103A6800102B3ED06508A40844EA817445EAC17564
:103A78002D194FEA910242EB5102290941EA0271DC
:103A88006D1842EB1212290A41EA02616D1842EBE5
:103A98001222290C41EA02416D1842EB1242AD187C
:103AA80042F10002EC0844EA4274D10804EB8402B3
:103AB800A6EB4205EDB2092D0CD90134A5F10A0592
:103AC80041F10001EDB212E0E40844EA417406F065
:103AD8000705C908303554EA010200F8015BBCD17A
:103AE800F0BD240944EA017406F00F050909092DFF
:103AF80084BFED19EDB2EDE701480068704700009A
:043B08003C0201205A
:083B0C00F0C6FF7F010000007C
:103B140069120008B43B0008A10600080000000078
:103B240000000000C83B0008F9140008183C000815
:103B3400F9140008403C000805100008DC3B0008AC
:103B4400F9140008903C0008F9140008B83C000877
:103B5400F9140008F03B0008F9140008A43C00081C
:103B6400F91400087C3C0008F9140008683C0008BB
:103B7400F9140008543C0008F91400082C3C00080F
:103B8400F9140008043C0008D1170008E03C0008C0
:103B9400D1170008CC3C0008F9130008000000000D
:103BA400D51A000800000000790F0008000000008A
:103BB4006B43000800000000784000086600012004
:103BC4000000000012440008D4410008D841000855
:103BD4007E000120000000004D43000800000000AA
:103BE40000000000640001205C020120784300080A
:103BF400944000087041000868000120DC020120A4
:103C040086430008A8400008704100086A000120AB
:103C1400F002012094430008BC40000870410008F1
:103C24006C00012004030120A2430008D0400008D6
:103C3400704100086E00012018030120B043000801
:103C4400E440000870410008700001202C030120AA
:103C5400BE430008F84000087041000872000120CB
:103C640040030120CC4300080C41000870410008C7
:103C74007400012054030120DA43000820410008A5
:103C8400704100087600012068030120E843000821
:103C94003441000870410008780001207C030120B1
:103CA400F643000848410008704100087A000120EA
:103CB40090030120044400085C410008704100089E
:103CC4007C000120A403012023440008E8410008EB
:103CD40088420008800001201800012033440008B5
:103CE4003842000888420008820001203000012088
:103CF40000000000D92F000800000000D92F0008A0
:103D040000000000D92F000800000000D92F00088F
:103D140000000000D92F000800000000D92F00087F
:103D24004B4300089D0F0008494300089D0F0008FD
:103D3400474300089D0F0008454300089D0F0008F5
:103D4400434300089D0F000800000000D92F00081D
:103D540000000000D92F000800000000D92F00083F
:103D640000000000D92F000800000000D92F00082F
:103D740000000000D92F000800000000D92F00081F
:103D840000000000D92F000800000000D92F00080F
:103D940000000000D92F000800000000D92F0008FF
:103DA40000000000D92F0008414300089D0F0008BF
:103DB40000000000D92F000800000000D92F0008DF
:103DC40000000000D92F000800000000D92F0008CF
:103DD40000000000D92F000800000000D92F0008BF
:103DE40000000000D92F000800000000D92F0008AF
:103DF40000000000D92F000800000000D92F00089F
:103E040000000000D92F000800000000D92F00088E
:103E140000000000D92F0008E03C000859360008D3
:103E240000000000D92F000800000000D92F00086E
:103E34003F4300089D0F000800000000D92F000830
:103E440000000000D92F000800000000D92F00084E
:103E540000000000D92F000800000000D92F00083E
:103E640000000000D92F000800000000D92F00082E
:103E740000000000D92F000800000000D92F00081E
:103E840000000000D92F000800000000D92F00080E
:103E940000000000D92F000800000000D92F0008FE
:103EA40000000000D92F000800000000D92F0008EE
:103EB40000000000D92F000800000000D92F0008DE
:103EC40000000000D92F000800000000D92F0008CE
:103ED40000000000D92F000800000000D92F0008BE
:103EE40000000000D92F000800000000D92F0008AE
:103EF40000000000D92F000800000000D92F00089E
:103F040000000000D92F000800000000D92F00088D
:103F140000000000D92F000800000000D92F00087D
:103F240000000000D92F0008CC3C000859360008D6
:103F340000000000D92F000800000000D92F00085D
:103F440000000000D92F000800000000D92F00084D
:103F540000000000D92F000800000000D92F00083D
:103F640000000000D92F000800000000D92F00082D
:103F740000000000D92F000800000000D92F00081D
:103F840000000000D92F000800000000D92F00080D
:103F940000000000D92F000800000000D92F0008FD
:103FA40000000000D92F000800000000D92F0008ED
:103FB40000000000D92F000800000000D92F0008DD
:103FC40000000000D92F000800000000D92F0008CD
:103FD40000000000D92F000800000000D92F0008BD
:103FE40000000000D92F000800000000D92F0008AD
:103FF40000000000D92F000800000000D92F00089D
:10400400440000000040000048656C6C6F2066723C
:104014006F6D2053544D3332210A0000000000001C
:1040240000000000000000000543000800000090AC
:10403400000000100000000221430008000000C03E
:10404400000000010000100000000120000000003A
:1040540000000B0602000000604000080000000899
:1040640030430008260002070000012038430008FE
:1040740022000B116F300008A73000080000000078
:10408400D91100083D31000800000000ED3000089F
:10409400FFFF0000002802400A000000300000007A
:1040A40000040000FFFF000000240240090000009B
:1040B4003000000000020000FFFF0000002002406A
:1040C400080000003000000000010000FFFF0000B5
:1040D400001C0240070000003000000080000000C7
:1040E400FFFF00000018024006000000300000003E
:1040F40040000000FFFF0000001402400500000023
:104104003000000020000000FFFF0000001002400B
:10411400040000003000000010000000FFFF000059
:10412400000C024003000000300000000800000002
:10413400FFFF000000080240020000003000000001
:1041440004000000FFFF0000000402400100000022
:104154003000000002000000FFFF000000000240E9
:1041640000000000300000000100000017330008C8
:104174006F3100087B3100088D3100089731000849
:10418400A331000849140008B13100080000000000
:10419400B83C0008A43C0008903C00087C3C0008A3
:1041A400683C0008543C0008403C00082C3C0008D3
:1041B400183C0008043C0008F03B00080000000024
:1041C40000000000000000000000000000000000EB
:1041D40000380240BD340008DF340008FB34000816
:1041E4001935000800140140C83B0008850400008C
:1041F4001042000801000000000000000000000060
:1042040000000000184200087B360008440000004B
:10421400200000002042000801000000284200089D
:1042240002000000C804000000020000E8040000CE
:104234000000000000100140C83B00088404000096
:1042440060420008010000000000000000000000BF
:1042540000000000684200086536000844000000C1
:1042640010000000704200080100000078420008BD
:10427400020000002701000000020000E702000025
:1042840000000000373800089B3700088F3500080D
:1042940029190008B136000843370008F53700082B
:1042A400E9350008FF3500089D360008153600087A
:1042B4002B3600089136000841360008AD15000879
:1042C40025160008D13700084D360008513600087D
:1042D400143B0008143B0008A43B0008AC3B000856
:1042E400B43B0008B43B00080010000000306865CF
:1042F40068650052656365697665643A2025730ACA
:10430400006D656D6F72792D706C616365686F6C9B
:10431400646572403930303030303030007364724C
:10432400616D40633030303030303000464C4153A2
:10433400485F30005352414D5F30000A06050504C2
:10434400010301020101010001696E746572727555
:1043540070742D636F6E74726F6C6C657240343060
:104364003031336330300072636340343030323381
:10437400383030006770696F403430303232383052
:1043840030006770696F403430303232343030007E
:104394006770696F403430303232303030006770CB
:1043A400696F403430303231433030006770696FA8
:1043B400403430303231383030006770696F403407
:1043C40030303231343030006770696F403430300F
:1043D4003231303030006770696F40343030323001
:1043E400433030006770696F4034303032303830D9
:1043F40030006770696F4034303032303430300010
:104404006770696F4034303032303030300072655C
:104414007365742D636F6E74726F6C6C6572007368
:10442400657269616C40343030313134303000733E
:10443400657269616C4034303031313030300000A5
:104444000000000000000001020304060708096DD3
:1044540061696E002A2A2A20426F6F74696E672090
:104464005A6570687972204F53206275696C6420B4
:1044740076342E302E30202A2A2A0A00286E756CB3
:0C4484006C29002A666C6F61742A00002D
:10449000A52F0008FD0600080000000029300008D4
:1044A00000000000000000000000000028000120C3
:1044B000000000000000000000C201000001030035
:1044C000000000004000012000000000000000008B
:1044D00000C20100000103000024F4004C00012090
:1044E0004C000120FFFFFFFFFFFFFFFFFFFFFFFF6B
:0444F000FFFFFFFFCC
:1044F40000000000000000000000000000000000B8
:1045040000000000000000000000000000000000A7
:0445140015E015E0B9
:0400000508000A21C4
:00000001FF
